S01B00004D53435F456D62656464656450726F6A6563742E73726563E6
S1130000581A0020DD730000CD730000E16C00007D
S113001000000000000000000000000000000000DC
S11300200000000000000000000000003F35000058
S113003000000000000000003F3500003F350000D4
S11300403F3500003F3500003F3500003F350000DC
S1130050000000003F3500003F3500003F35000040
S11300603F3500003F3500003F3500003F350000BC
S11300703F3500003F3500003F3500003F350000AC
S11300803F3500003F3500003F3500003F3500009C
S11300903F3500003F3500003F3500000000000000
S11300A03F3500003F3500003F3500003F3500007C
S11300B03F350000000000003F3500003F350000E0
S11300C0E400F8FFDC00FAFF8100D000026CDC02DF
S11300D0F4FFB4001F010400009501002096010004
S11300E02095010020950100209501002095010034
S11300F0207C010020E0001F020401018C07002085
S1130100DC0700208C0700208C0700208C070020CF
S1130110D5010020BC010020E0001F020802023CBF
S11301200700208C0700203C0700203C0700203CEF
S113013007002015020020FC010020E0000B5801FC
S1130140002098010020D8010020EC00048555000F
S10701500001F900AD
S1130400FFFFFFFFFFFFFFFFFFFFFFFFFEFFFFFFF9
S1130410E022520080180268914203D34368D21844
S1130420914202D380680028F5D1704718480168CA
S113043000290ED18021490281600909416000210F
S1130440C943C160016104214161124A116012492A
S113045001600120704730B407230C0008341C42AB
S113046001D1002304E008240D000835641B234057
S1130470C918D21A8161C260012313434B60282337
S113048089184B6002490969C16130BC704700009A
S113049070080020580600206859883CF0B587B0E1
S11304A0040007200D000835054205D008250E007C
S11304B00836AD1B0540491902911100083101426B
S11304C005D0082115000835491B084012181700EB
S11304D00298C018039005460298381AC01A019071
S11304E00326334302984360BD4201D301F0ECFA82
S11304F03879C00701D401F0E7FA0198102801D235
S113050001F0E2FAA069874208D1E0680199401835
S1130510E060A5610121014369606AE16069874285
S113052009D1A06801994018A060656101210143C7
S1130530696028505DE178680640012E00D0B9E07A
S1130540072188430590C00820283CD2B96800914F
S1130550FE680490B74201D101F0B6FA00988742D0
S113056001D101F0B1FA7868072188430499C900E0
S1130570884201D001F0A8FA0498C000201800991C
S113058002002832914207D02269914200D289E0C8
S1130590C968B94200D085E000998E4206D120682E
S11305A00121049A9140884320607DE028308642EE
S11305B005D02069864275D3B068B84272D1CE6046
S11305C00098B06070E0B8690090FE68BE420CD03C
S11305D0B8682169884225D3C168B94222D1B1687B
S11305E0B9421FD1C660B0601EE0380014300668FE
S11305F0002E07D1380010300668002E14D001E018
S113060008000668310014310A68002AF8D1310064
S113061010310A68002AF3D12169884202D30021EB
S1130620016001E001F050FA009800283CD0F8691C
S11306308000201898214900401801688F4209D190
S11306400660002E14D160680121FA699140884344
S1130650606029E000982169884207D30069B842A4
S1130660009801D1066103E0466101E001F02CFA33
S1130670002E19D02069864214D30099B1613969DA
S1130680002906D0814202D331618E6101E001F07C
S11306901BFA7869002807D02169884202D3706167
S11306A0866101E001F010FA05983F180198059958
S11306B040180190786801218843786001980143CB
S11306C06960019828500198C008202822D200901F
S11306D0C000271828373E000198102801D201F0E5
S11306E0F3F9206800990200CA40D10705D401211A
S11306F0009A91400143216007E0B868216988426B
S113070001D3060001E001F0DFF9BD60F560AE60E1
S1130710EF606EE00198000A01D1002225E08021FB
S11307204902884201D31F221FE0FF21C943411817
S1130730090C082211408840304A8218120C042304
S11307401A4090402E4BC3181B0C022633400E2631
S1130750711A891AC91A9840C00B08184100019AE5
S1130760C01DC240D007C00F0A189000201898215D
S113077049004118EA6100206861286163681E002D
S1130780D640F60705D401209040184360600D6000
S11307901BE009681F2A019B05D019265208B21ACA
S11307A0934000E011004A680726B243019EB2421A
S11307B010D0DA0F92008E1810365B003268002ACF
S11307C0F0D12069864212D33560A961ED600398A7
S11307D0A8600EE08A682369994208D39A4206D336
S11307E0D560039B8B60AA60E960A86101E001F019
S11307F06BF90298083007B0F0BD000000F0FFFF6D
S113080000C0FFFFF2B586B004008F4800680028DE
S113081001D1FFF70BFE8C488168069840182F30F1
S1130820491E88430699814200D3DCE1D82149005E
S113083061188968002909D0D8225200A2581018DA
S1130840824200D3CFE1814200D2CCE101F046F9EB
S1130850002800D1C7E1009007680021C9438842FD
S113086000D1C0E1D82040002058C019D821490047
S1130870605061184968814200D20100D8204000CC
S113088020184160A069002839D12069002802D0CD
S11308900099814201D2009820610098D821490032
S11308A061180861D8204000201847610026D8202C
S11308B040002018C6616448006860620020C0439C
S11308C0206220002830C060014681600831416107
S11308D00161B61C1030202EF5D3C448844203D1E4
S11308E0283F3A00009926E0201F0068072188432A
S11308F0211808390098C019421A283A1BE0E02050
S11309004000201800E08068002818D00099026890
S11309104368D2189142F6D1017B09070FD4A1692B
S1130920026891420BD3D218914208D2D91941607E
S1130930E068C219A1692000FFF78DFD3FE100982E
S11309402169884200D22061E020400020180099EB
S1130950C91900E08068002810D002688A42F9D1E1
S1130960017B09070AD4009901604168C9194160F3
S1130970069B00992000FFF791FD35E1A0690390E3
S1130980054629002000FFF743FD01684068081868
S1130990059027380026410701D1002003E00821F3
S11309A0081A4007400F059908182F3829001031FC
S11309B0884201D2019500E001900198183002901C
S11309C004963800283800990831490701D10021DC
S11309D005E00821009A0832891A4907490F401A8C
S11309E0009A5118A161E060012202434A60282262
S11309F00818426014480069E06101980830400713
S1130A0001D001F061F81B20019948600198083079
S1130A10E02149006118102201F08AF80098D821D9
S1130A20490061180861D820400020184761D82087
S1130A3040002018C66101980830D8214900611887
S1130A408861059805E000BF700800200299091D1F
S1130A5002910721029A51600499491C0491029958
S1130A6008318142F2D30498022801DA01F02CF80B
S1130A700198A84200D1A2E0411B426801239A4395
S1130A80426001220A436A600160C808202821D21A
S1130A900090C000271828373E00102901D201F029
S1130AA013F8206800990200CA40D10705D4012137
S1130AB0009A91400143216007E0B86821698842A7
S1130AC001D3060001E000F0FFFFBD60F560AE60F9
S1130AD0EF6074E0080A01D1002228E01A04904271
S1130AE001D31F2223E0FF22D2438218120C0823D1
S1130AF01A40009290403E4A8218120C04231A4075
S1130B0090403C4BC3181B0C02273B4001930E231F
S1130B10009FDB1B9A1A019BD21A9840C00B101835
S1130B204200C01D0B00C340D807C00F121890002C
S1130B30201898235B00C0180090EA616E612E6152
S1130B4060680300D340DB0707D4012191400143CF
S1130B5061600098056000981DE0009800681F2AF5
S1130B6001D10A0006E0192352089B1A0A009A4090
S1130B7000E0380043680727BB438B4210D0D30FF3
S1130B809B00C318103352001F68002FF1D1216954
S1130B908B4212D31D60A861ED600398A8600EE03B
S1130BA081682269904208D3914206D3CD60039AAA
S1130BB08260A960E860AE6101E000F085FFE06852
S1130BC0069981420FD2401AE060A169069A8A18F8
S1130BD0A2610123034353600698032202434A603F
S1130BE00800083000E0002007B0F0BD9C0400209D
S1130BF000F0FFFF00C0FFFFF2B584B00400002046
S1130C00009004984542000A25D080214902884278
S1130C1001D31F201FE0FF21C9434118090C0822FA
S1130C2011408840B34A8218120C04231A409040A1
S1130C30114BC3181B0C022633400E26711A891A55
S1130C40C91A9840C00B08184100049AC01DC2403C
S1130C50D007C00F081881006118982252008B58E1
S1130C60002B28D01F28049A03D019214608891B79
S1130C708A40002103E000BF00C0FFFF52005E680D
S1130C800727BE43049FF61BAE4202D200933500F1
S1130C900CD05E69D70FBF00DB191B69002E02D090
S1130CA09E4200D03100002BE8D10B00002B3FD135
S1130CB0009900293ED10121012282405000434283
S1130CC0034362681A4000D178E150421040401E4C
S1130CD0020B10231A40D040430908263340D84061
S1130CE0860804273E400296F040460802273E400C
S1130CF00196F04046083140D218029BD218019B5D
S1130D00D2185218C84010188000201898214900A1
S1130D1043580DE003005868072188430499401A9A
S1130D20A84201D20500009318690028F2D15B693A
S1130D30002BF0D10098002800D13FE1A06804996D
S1130D40401A854200D339E1009E2069864200D2D0
S1130D5032E168180290009840680721884302999C
S1130D60884201D000F0B0FE009804994718BE42B2
S1130D7000D321E1806901900098C66886420DD0B5
S1130D8080682169884225D3C168009A914221D1A3
S1130D90B16891421ED1C660B0601DE0143006688F
S1130DA0002E07D1009810300668002E14D001E000
S1130DB008000668310014310A68002AF8D13100AD
S1130DC010310A68002AF3D12169884202D3002134
S1130DD0016001E000F078FE0198002843D00098FB
S1130DE0C0698000201898214900401800990268C1
S1130DF091420AD10660002E16D160680121009A42
S1130E00D2699140884360602DE00198216988424D
S1130E1008D3006900998842019801D1066103E072
S1130E20466101E000F050FE002E1CD0206986428D
S1130E3017D30198B06100980069002807D0216990
S1130E40884202D33061866101E000F03DFE0098E3
S1130E504069002807D02169884202D37061866105
S1130E6001E000F031FE03200121102D0AD2029A84
S1130E701043009A50600098029A80184268114307
S1130E80416096E0049A1043009A50600120284380
S1130E9078607D51E808202819D2C200A6182836A7
S1130EA0350022681300C3400B4003D18140114335
S1130EB0216007E0B0682169884201D3050001E0A0
S1130EC000F002FEB760EF60BD60FE6071E0280ACA
S1130ED001D100222AE00A04904201D31F2225E016
S1130EE0FF22D2438218120C08231A400192904028
S1130EF0004A01E000F0FFFF8218120C04231A409C
S1130F009040304BC3181B0C0226334002930E232F
S1130F10019E9B1B9A1A029BD21A9840C00B101870
S1130F204200C01D2B00C3400B40D2189000201873
S1130F3098235B00C018FA6100237B613B616368FE
S1130F401E00D6400E4004D19140194361600760F1
S1130F501CE000681F2A01D1290006E0192152086B
S1130F608A1A2900914000E01000426807239A433E
S1130F70AA420FD0CA0F92008318103349001A688E
S1130F80002AF1D121698B4211D31F60B861FF603F
S1130F90BF600EE081682269904208D3914206D373
S1130FA0CF608760B960F8600020B86101E000F0AC
S1130FB08BFD0098083002E000F086FD002005B0AB
S1130FC0F0BD000000C0FFFFF2B586B00400616808
S1130FD048420840401E010B10221140C8404209FB
S1130FE008231A40D040830804252B40D8404508E4
S1130FF002263540E8408607F60F8918C9184919B2
S11310008919F04008188000201898214900405898
S11310100700416807229143069A8D1A09E00800E7
S1131020416807229143069A891AA94201D20D0008
S1131030070001690029F2D140690028F0D1206934
S1131040874200D2D3E0A81801907868072188432A
S11310500199884201D000F037FD069838180490B1
S1131060874200D3C3E0B8690090FE68BE420CD04A
S1131070B8682169884225D3C168B94222D1B168D0
S1131080B9421FD1C660B0601EE038001430066853
S1131090002E07D1380010300668002E14D001E06D
S11310A008000668310014310A68002AF8D13100BA
S11310B010310A68002AF3D12169884202D3002141
S11310C0016001E000F000FD009800283DD0F869BF
S11310D08000201898214900401801688F4209D1E6
S11310E00660002E14D160680121FA69914088439A
S11310F060602AE000982169884207D30069B842F9
S1131100009801D1066103E0466101E000F0DCFCD7
S1131110002E1AD02069864215D30098B061386930
S1131120002807D02169884202D33061866101E03A
S113113000F0CAFC7869002807D02169884202D3EC
S11311407061866101E000F0BFFC0320102D09D21C
S113115001990843786001983818416801220A43CC
S1131160426041E0069908437860012028430499CD
S1131170486004984551A0680090C608202E01D309
S113118000F0A2FC009800282BD06069039001961F
S1131190F00020182830029006460098102801D24A
S11311A000F092FC206801990200CA40D10705D4DE
S11311B00121019A91400143216008E0029880686E
S11311C02169884201D3060001E000F07DFC039808
S11311D0029988600398F0600398866002980399E6
S11311E0C860A560049860613800083002E000F02F
S11311F06BFC002007B0F0BDF0B587B0040000F030
S1131200B1FCBA4DF52C00D325E10B2C01D21024EE
S113121002E00B3407208443E0080090286800991A
S1131220C840032738424DD0012601228243881842
S11312300090C00028182830029084680098C000EC
S113124003906068072188430399884201D000F025
S11312503BFCA06801900298844201D100F034FC68
S11312600198844201D100F02FFC60680721884373
S11312700399884201D000F027FC02980199884222
S113128006D12968009A01209040814329600FE02B
S113129008462969884209D3C068A04206D101984A
S11312A00299886002980199C86001E000F00CFC82
S11312B00398074367600398201841680E4346600B
S11312C0260007E1A968A14200D3D7E0002800D195
S11312D0B7E00126009901228A405100009A90400B
S11312E04A420A43024051421140491E080B10224F
S11312F01040C1404A0908231A400092D1408A088C
S113130004231A400192D1404A0802231A4002924F
S1131310D1404A083240009BC018019BC018029B70
S1131320C0188018D14040180390C00028182830F5
S11313300090806804900398C0000290049840686C
S1131340072188430299884201D000F0BDFB04982C
S11313508068019004980099884201D100F0B4FBA0
S113136004980199884201D100F0AEFB04984068CA
S1131370072188430299884201D000F0A5FB009818
S11313800199884206D12968039A0120904081433B
S1131390296010E00846296988420AD3C068049984
S11313A0884206D101980099886000980199C86024
S11313B001E000F089FB0298001B03902743049886
S11313C047600498001905900398304305994860D4
S11313D0039805990850A8680090C408202C01D3EC
S11313E000F072FB0098002825D0686902900194EF
S11313F0E0002F1828373C000098102801D200F094
S113140063FB286801990200CA40324003D18E4030
S113141006432E6007E0B8682969884201D30400B6
S113142001E000F051FB0298B8600298E060029875
S113143084600298C7600398A86005986861049E58
S113144048E06868002836D021002800FFF7BCFD7A
S1131450060013D045E03F20C043844202D3002459
S1131460E4430BE00B34072084436868002805D06C
S113147021002800FFF7C0FB060032D1A968A14271
S113148019D30A1B686901260327102A08D30119F6
S11314906961AA6016434E608A502743476008E09A
S11314A00022AA606A610F43476041184A681643E4
S11314B04E6006000EE0E86884420DD2001BE8602E
S11314C0A9690A19AA610123034353600320204335
S11314D048600E00083604E021002800FFF792F966
S11314E0060000F04EFB300007B0F0BD9C04002065
S11314F0002800D17047F0B585B00838050000F029
S113150031FB474C2069854200D2D2E26B6803214B
S113151003221A40012A00D1CBE2DE08F600AA1900
S1131520029201273B4241D12A680B4000D1C2E21A
S1131530B6185342ED18854200D2BAE263699D425F
S113154000D102E1D108202900D380E0A8680190ED
S1131550E868009003910098854201D100F0B4FA44
S11315600198854201D100F0AFFA686807218843E9
S11315700399C900884201D000F0A6FA0398C0007C
S11315802018019902002832914205D02269914223
S11315905AD3C968A94257D10099019A914243D1BB
S11315A02168039A0120904081432160029885427A
S11315B000D37EE24068384200D17AE2810700D548
S11315C0C5E10299A269914200D0CEE0E068811998
S11315D0E160A5610F436F606069854202D100201C
S11315E06061A060E069884200D364E20D4800684D
S11315F0002801D1FEF71AFFA169002900D15AE29F
S1131600E068292802D32000FEF702FFE069E168C0
S1131610884200D34FE20020C043E0614BE200BFA8
S11316209C040020700800202830814206D008461F
S11316302169884208D38068A84205D10098D06007
S1131640019800998860B1E700F03EFAAEE7A96915
S11316500091EA68AA420DD0A9680192814228D378
S1131660C868A84225D19068A84222D1CA600198CE
S1131670816020E0290014310A680192002A09D10E
S1131680290010310A680192002A14D002E01100E6
S11316900A680192019A14321368002BF7D1019A57
S11316A010321368002BF2D1814202D3002008606B
S11316B001E000F009FA0098002800D176E7E86913
S11316C08000201898214900401801688D420AD1F1
S11316D001990160002915D16168EA6901209040EF
S11316E08143616062E700982169884208D30069F8
S11316F0A8420198009901D1086103E0486101E022
S113170000F0E2F90198002800D14FE7206901991F
S1131710814299D30099019A91612969002908D0DD
S1131720814204D3019801610198886101E000F0CD
S1131730CBF96869002800D138E72169884283D34E
S1131740019948610199816130E70298406801403C
S1131750032900D02AE7A66002984068B84302999A
S1131760486037436F60AE51A5E16269914207D189
S1131770A0688019A060656107436F6028509AE1F2
S1131780072188433618C00820284BD2029989685B
S113179000910299C96803910190029803998842C3
S11317A001D100F091F902980099884201D100F02A
S11317B08BF902984068072188430199C90088423F
S11317C001D000F081F90198C000201800990200AE
S11317D02832914208D02269914200D2ACE0C96813
S11317E0029A914200D0A7E00399009A914206D14F
S11317F02168019A01209040814321609EE02830B5
S1131800814209D008462169884200D294E0806868
S11318100299884200D08FE00398D0600098039921
S113182088608BE00298806901900298C0680299F0
S1131830884212D0029989680090206981422CD391
S1131840C868029A904228D100988068904224D1B6
S11318500098C8600098816021E002981430016803
S11318600091002909D102981030016800910029E3
S113187015D002E0080001680091009914310A684B
S1131880002AF7D1009910310A68002AF2D121699F
S1131890884202D30021016001E000F015F90198AB
S11318A000284BD00298C069800020189821490074
S11318B040180299026891420BD1009901600029F5
S11318C017D161680298C269012090408143616028
S11318D034E001982169884209D300690299884259
S11318E00098019901D1086103E0486101E000F02A
S11318F0EBF80098002821D02069009981421BD37D
S11319000199009A916102990969002908D08142DC
S113191004D3009801610098886101E000F0D4F8D4
S113192002984069002809D02169884204D30099AB
S113193048610099816101E000F0C6F8012030435C
S11319406860AE516069854208D1A660B3E0B843CF
S113195002994860012030436860AE51F0082028A5
S113196025D20090C0002018283001900290102E3B
S113197001D200F0A9F8206800990200CA403A4058
S113198003D18F400743276008E0019880682169EC
S1131990884201D3029001E000F096F80198856036
S11319A00298C5600298A8600198E86083E0300A54
S11319B001D1002227E03904884201D31F2222E00A
S11319C0FF21C9434118090C0822114000918840A5
S11319D03B494118090C04221140019188403949BE
S11319E04118090C022211400E22009BD21A019BBD
S11319F0D21A521A8840C00B10184100C01D320080
S1131A00C2403A408A189000201898214900401892
S1131A100090EA6100206861286161680B00D3408E
S1131A203B4007D197400F436760009805600098DA
S1131A30A8611EE0009909681F2A01D1320006E05E
S1131A40192352089B1A32009A4000E039004B686F
S1131A500727BB43B3420FD0D30F9B00CB181033DF
S1131A6052001F68002FF1D12069834210D31D60FA
S1131A70A961ED60AD600DE08A682369994207D3DE
S1131A809A4205D3D5608D60AA60E960A86101E03F
S1131A9000F01AF8206A401E20620CD1E4204000B5
S1131AA0205800E080680028FCD10020C043206258
S1131AB001E000F009F800F064F805B0F0BD0000A2
S1131AC000F0FFFF00C0FFFF80B5012000F068F8C0
S1131AD001BD002801D00968016070470749086802
S1131AE0002801D000207047054807229043086071
S1131AF004499143091A0160704700BFBC080020E3
S1131B005F0A002058160020124207D08B0706D027
S1131B100B78491C0370401C521EF7D8704783078A
S1131B2006D00B78491C0370401C521EF9D1704733
S1131B3070B4103A03D378C9103A78C0FBD2530773
S1131B4001D318C918C001D508C908C0D20704D3E5
S1131B500B880380891C801C002A01D50B78037034
S1131B6070BC704780B5012000F0B3F801BD80B5AA
S1131B70022000F0AEF801BD80B5042000F0A9F801
S1131B8001BD80B5012000F0B6F801BD80B502208A
S1131B9000F0B1F801BD80B5042000F0ACF801BD3F
S1131BA02021090326311820ABBEF9E710B5574CA4
S1131BB02068002832D0201D00F0AAF82000083048
S1131BC000F0A6F820000C3000F0A2F8200010303D
S1131BD000F09EF82000143000F09AF8200018302D
S1131BE000F096F820001C3000F092F8200020301D
S1131BF000F08EF82000243000F08BF8200028300C
S1131C0000F087F820002C3000F083F820003030FA
S1131C1000F07FF82000343000F07BF810BD10B5E0
S1131C203A4C201D00F076F82000083000F072F8DD
S1131C3020000C3000F06EF82000103000F06AF83C
S1131C402000143000F066F82000183000F062F82C
S1131C5020001C3000F05EF82000203000F05AF81C
S1131C602000243000F057F82000283000F053F80A
S1131C7020002C3000F04FF82000303000F04BF8FA
S1131C802000343000F047F810BD38B504001F4D73
S1131C902868002801D1FFF7C2FF01202860002C2A
S1131CA007D0A078082804DA80002818001D00F066
S1131CB033F8200032BD002800D1704780B5807809
S1131CC0082805DA114980000818001D00F025F8DD
S1131CD001BD38B504000D4D2868002801D1FFF777
S1131CE09EFF01202860052C04D2A000281824306F
S1131CF000F014F831BD052800D3704780B50349BE
S1131D0080000818243000F00AF801BD20080020E3
S1131D107047704770477047704770477047704707
S1131D20F1B5A6B00E0015001F004C487844FF30F2
S1131D302D3003C824AA03C214ACA6600020E062BC
S1131D4001E000982D1800206946C88024AB0022C9
S1131D50D243290001A8801C01F05DF800900128FD
S1131D6005DA2878411E8941C943C90F00916846A4
S1131D70C0882528009800D1401E012811DB2E00C0
S1131D8004903178A068269A9047A060002800D17A
S1131D9001E1E06A401CE062761C0498401E049055
S1131DA0EFD16846C088252807D100206061A06172
S1131DB0E06120626062A06208E06846C088002892
S1131DC0BFD1E06AE9E00100012008436D1C2978D5
S1131DD02029F8D023290ED02B2904D02D2907D06F
S1131DE030290BD00DE001000220084380B2EDE75A
S1131DF001000420F9E701000820F6E701001020A3
S1131E00F3E72A290FD1396839600A68091D396056
S1131E106263002A05D5514261630100042008432E
S1131E2080B26D1C12E0002161630AE0626B814B99
S1131E309A4205D093009A185200511830396163C0
S1131E406D1C29780A00303A0A2AEFD329782E2902
S1131E5006D00021C943216321E000BF1C550000C6
S1131E606D1C29782A2907D1396839600A68091D47
S1131E70396022636D1C12E0002121630AE0226BA9
S1131E806C4B9A4205D093009A185200511830397D
S1131E9021636D1C29780A00303A0A2AEFD320877F
S1131EA02E783100044878440E3000F0C2FF002838
S1131EB004D06D1C03E000BFC854000000263A2083
S1131EC02654205C682804D12978682901D162202D
S1131ED005E06C2806D128786C2803D171203A21BA
S1131EE060546D1C05A820612E786D1C30002538C7
S1131EF024D02038022800D8E3E0133800D105E1CB
S1131F000B3800D16CE1401E00D146E1401E02288E
S1131F1000D8D6E0001F00D13FE1401F00D1A2E06D
S1131F20401E00D1F2E0401E39D0C01E0BD0801EEE
S1131F3000D1EBE0C01E00D1E8E073E12520694642
S1131F400875012078E13A20205C6C2838683860F4
S1131F5017D00168001D3860E160266B002E03D5A0
S1131F60084600F070FF0AE032000021E06800F04B
S1131F7072FF002802D0E168401A00E03000A0613E
S1131F805BE10268001D386014A9269800F03CFA51
S1131F90002800D451E10020C04327B0F0BD3868C8
S1131FA038600268001D38600020C04300211040E2
S1131FB014AA03C205A8E060206900903C2214A87A
S1131FC003C802AB03C302A803C8002904D1002834
S1131FD002D1206B00281DD0521E02A803C800079E
S1131FE0000F3030C0B23A2800DB27300099885403
S1131FF002A803C800090B071843090902AB03C36D
S113200002A803C801D1002804D0E0680099891807
S11320108842E1D33C20801AA06100998918E160CC
S1132020216B88420ADA081A2062208F0249014093
S1132030218702E1FFFFFF7FEFFF0000002900D4AA
S1132040FBE03821615C14220A40102A00D0F4E03D
S1132050616B6269891A226A891A0A1A012A00DAEA
S1132060EBE02262E9E03A20205C622819D068287B
S113207006D06A280CD06C281BD0712808D018E030
S1132080386838600168001D3860E06A0880D4E070
S1132090386838600268001D3860E06AC11703C2FE
S11320A0CBE0386838600168001D3860E06A087069
S11320B0C3E0386838600168001D3860E06A086071
S11320C0BBE03A68D21D072082433A6003CA3A60F3
S11320D014AA03C2002902D560692D2109E0208FCA
S11320E0810702D560692B2103E0C00705D560692B
S11320F0202105AA1154401C606105A8616940189B
S1132100E060310014A800F0C7FB96E03A20205CA0
S11321106C280BD0712801D06A2807D13A68D21DE7
S1132120072082433A6003CA3A6005E0396839609F
S11321300868091D3960002114AA03C23A20205CF2
S1132140682803D114A803C880B20BE0622803D125
S113215014A803C8C0B205E0742801D07A2804D1B9
S113216014A803C8002114AA03C23820205C000765
S11321702DD514A803C8002901D1002827D0202078
S11321803043782823D16069302105AA1154401CBA
S1132190411C616105A90E5419E039003A20205C04
S11321A000F0FDF814AA03C2002902DA60692D21A7
S11321B009E0208F810702D560692B2103E0C00765
S11321C005D56069202105AA1154401C606105A849
S11321D061694018E060310014A800F0A7FA2CE00F
S11321E03A20205C6C2809D001206061386838608E
S11321F00168001D3860684601751EE03868386063
S11322000168001D386068460180002069464880E6
S1132210C04320636A4614A9269800F0F5F8002804
S11322200BD5B8E6252069460875012060613000A9
S113223003D005A8467002206061606B6169401A92
S1132240216A401AA169401A616A401AE169401A78
S1132250A16A401A04903820205C400711D4202041
S113226069460871049801280BDB049E012301AA26
S113227014A9269800F0B7FD002800D08BE6761E3E
S1132280F4D1606905AE002810D000903178A068C0
S1132290269A9047A060002800D17CE6E06A401CA2
S11322A0E062761C0098401E0090EFD13020694611
S11322B00871266A012E0ADB012301AA14A92698B3
S11322C000F091FD002800D065E6761EF4D1E668A2
S11322D0A069002810D000903178A068269A904711
S11322E0A060002800D156E6E06A401CE062761C3B
S11322F00098401E0090EFD1302069460871666A4C
S1132300012E0ADB012301AA14A9269800F06BFD13
S1132310002800D03FE6761EF4D1E068A169461893
S1132320E069002810D000903178A068269A904780
S1132330A060002800D12EE6E06A401CE062761C12
S11323400098401E0090EFD1302069460871A66ABB
S1132350012E0ADB012301AA14A9269800F043FDEB
S1132360002800D017E6761EF4D13820205C400700
S113237000D4E8E42020694608710498012800DAB2
S1132380E1E4049E012301AA14A9269800F02BFD80
S1132390002800D0FFE5761E00D1D4E4F2E70A005D
S11323A0622822D0682819D06A2808D06C2823D043
S11323B0712804D074281FD07A2808D01CE0136830
S11323C0DB1D07208343136003CB13607047116840
S11323D011600868091D11600021704711681160BF
S11323E00868091D116000B20BE0116811600868EB
S11323F0091D116040B204E0116811600868091DEC
S11324001160C11770470000F4B59AB007000C00C2
S1132410206B002800D50E48039000F028FD616B66
S11324200818069009487844223003C807AA03C252
S11324303820205C400702D4069841280AD209A813
S11324400290402006900020059012E03C4F0000CE
S1132450FFFFFF7FFEF7D0FE02900028F3D100209B
S1132460C04361E11A98801C1A9003980199401A9C
S113247003900398012800DAD0E007AA1A9801888B
S113248000A8401C00F0F8FC0190002800D5E2E010
S11324901A980088002804D10198401E019000D5A4
S11324A0D9E003980199884200DAB7E06069069997
S11324B0019A8218914200D39FE000216163414256
S11324C0206A081AA169401A616A401AE169401A2F
S11324D0A16A401A04903820205C400711D42020BF
S11324E069460870049801280BDB049D01236A46A1
S11324F02100380000F077FC002800D0ABE06D1E0E
S1132500F4D16669029D002E0CD02978A068B847E2
S1132510A060002800D19EE0E06A401CE0626D1CCF
S1132520761EF2D1302069460870256A012D0ADB37
S113253001236A462100380000F055FC002800D031
S113254089E06D1EF4D1E568A669002E0BD02978C8
S1132550A068B847A06000287DD0E06A401CE06213
S11325606D1C761EF3D1302069460870656A012D12
S113257009DB01236A462100380000F034FC0028FE
S113258069D16D1EF5D1E068A1694518E669002E90
S11325900BD02978A068B847A06000285BD0E06A17
S11325A0401CE0626D1C761EF3D130206946087031
S11325B0A56A012D09DB01236A462100380000F0D9
S11325C012FC002847D16D1EF5D13820205C40074D
S11325D010D5202069460870049801280ADB049D60
S11325E001236A462100380000F0FDFB002832D1A7
S11325F06D1EF5D1002005906061019A00A9491C67
S113260002986369C018FFF77FFA6069019940185E
S113261060611A980088002800D023E705980028F4
S11326207BD1606B6169401A216A401AA169401A22
S1132630616A401AE169401AA16A461A3820205C8E
S1132640400711D4012E0FDB35002021A068B847C4
S1132650A060002803D10020C04305905DE0E06A3B
S1132660401CE0626D1EF0D16369029A21003800BB
S113267000F0B9FB0028EED1256A012D0ADB3021D8
S1132680A068B847A0600028E5D0E06A401CE0627A
S11326906D1EF4D1A369E2682100380000F0A3FBA9
S11326A00028D8D1656A012D0ADB3021A068B8471B
S11326B0A0600028CFD0E06A401CE0626D1EF4D117
S11326C0E369E068A16942182100380000F08BFB3F
S11326D00028C0D1A56A012D0ADB3021A068B847C3
S11326E0A0600028B7D0E06A401CE0626D1EF4D1FF
S11326F03820205C40070DD5012E0BDB350020214E
S1132700A068B847A0600028A5D0E06A401CE06239
S11327106D1EF4D1002060616063029809A98842AB
S113272001D0FEF7E5FE05981BB0F0BDF3B583B00C
S1132730006900906846027C6F2A01D1082406E0F3
S113274020211143782901D00A2400E010243C25DB
S1132750039803C806000F00642A01D0692A07D130
S1132760002905DA00200021801BB94106000F0072
S1132770002F10D1002E0ED10398006B00280AD12F
S1132780082C3AD103983821405C000735D53B2505
S11327903020009930E06D1E019530003900220090
S11327A0E31700F075FB3032D2B23A2A03DB6846F5
S11327B0007C51381218009842553000390022002C
S11327C0E31700F065FB06000F0001D1002E05D0D1
S11327D00398C068009949198842DCD3082C0CD1AD
S11327E003983821405C000707D50098405D3028E5
S11327F003D06D1E3020009948553C20401B03999E
S1132800886100994919039AD1600399096B884238
S113281009DA081A039908620398008FB149014044
S11328200398018715E0002913D503993822895CA0
S113283014220A40102A0CD10399496B039A526955
S1132840891A039A126A891A0D1A012D01DB039859
S1132850056205B0F0BDF4B504000D000026A24FDA
S113286014E0C00707D532003B002000290000F027
S113287044FB04000D000098401000903000390023
S113288032003B0000F039FB06000F0000980028DE
S1132890E7D120002900F4BDF3B591B006AA03C81E
S11328A002AB03C31198006B002801D5062007E092
S11328B008D112A8007820210143672902D1012000
S11328C011990863119840684100490D874B99425A
S11328D023D100030FD11198006800280BD10320E5
S11328E01199886112A8007861381A2848D300BF6A
S11328F086A000900AE003201199886112A800784C
S113290061381A283AD300BF81A0009003220099AD
S11329101198C068FFF7F8F8E2E001292BDB744A4C
S1132920024074481043119A50607348081A00B268
S1132930724C444302A803C80022002300F09FFB0A
S113294006D202A803C880221206514002AA03C27A
S113295020006B4900F0C2FB69468880019C24B2C8
S11329600720001B009001280CDB024602A803C8C4
S1132970FFF771FF11E000200023A6E065A0C4E783
S113298065A0B6E7424200205E49FFF764FF0200FB
S11329900B0002A803C800F0FBFB02AA03C212A8A2
S11329A00078202101430491662901D10A3400E012
S11329B006241198006B00190090142801DB1320E1
S11329C0009030206946087606A8441C0098012827
S11329D039DB02A803C800F03FFC05900646083422
S11329E0042530000A2100F07CFB0F0030000A218E
S11329F000F077FB06003037601E077030000A21B4
S1132A0000F06FFB0F0030000A2100F06AFB0600A3
S1132A10A41E303727706D1EE3D10834009808389F
S1132A2000900128D2DB059800F02EFC02000B0078
S1132A3002A803C800F095FC0022334B00F05DFAB5
S1132A4002AA03C2C5E706A8401C201A06A94A1C0C
S1132A506B4605E0401E019909B2491E9980521C3B
S1132A6011783029F6D00499662903D1019909B265
S1132A70491C04E0652901D1012100E00021119BDA
S1132A801B6B5B181BB2984200DA03001BB21900DF
S1132A901DD4814204DA505C352801DB392000E082
S1132AA03020541800E05B1E641E491E25788542C0
S1132AB0F9D0392802D1505C401C5054002906D565
S1132AC0521E5B1C019800B2401C69468880019824
S1132AD000B200901BB212A80178119800F01EF801
S1132AE013B0F0BDEFFF000000002440FF0700001A
S1132AF0FFFF0F800000E03FFE0300009775000019
S1132B00A08601000000F03F84D79741494E46005B
S1132B104E414E006E616E00696E6600F3B587B07B
S1132B2015001C0000F0ADFC0090406A0078694676
S1132B3008710798076B012C01DA0124A9A508A8DC
S1132B400178202008430E9E662801D1761C17E0E8
S1132B50672800D0B2E00321C9438E4200DA99E02D
S1132B60BE4200DB96E0761C07983821405C0007E3
S1132B7002D4BC4200DA270036B2BF1B00D50027BE
S1132B80079880690799C9680918009136B2012E1F
S1132B902EDA401C3021009A1170012F04DA0799B3
S1132BA03822895C090705D569460979079AD268EC
S1132BB01154401C079988617042874200DA7E42B2
S1132BC036B2704207994862BF19A74200DA3C0046
S1132BD024B20798C461220029000798C068079BA3
S1132BE09B69C018FEF790FF381B07998862DAE0EA
S1132BF0B44220DA220029000098FEF785FF0799E5
S1132C0089690919079A9161301B079A5062012F4B
S1132C1004DA07983822805C000709D568460079F1
S1132C20079AD26850540798C069401C0799C86134
S1132C3007988762B7E0320029000098FEF764FF26
S1132C40079880698019A41B012F04DA0799382298
S1132C50895C090705D569460979079AD268115430
S1132C60401C0799886124B2A74200DA3C0024B2D0
S1132C702200A9190798C068079B9B69C018FEF732
S1132C8043FF07988069001907998861381B0799E1
S1132C90486288E0BC4205DA07993822895C090752
S1132CA000D427007F1E00D5002708A800786728D5
S1132CB001D1652000E0452008A9087007988069C3
S1132CC0411C079A91612978079AD2681154681CAB
S1132CD00090012F04DA07983821405C000720D5C2
S1132CE007988169481C079A90616A461279079B84
S1132CF0DB685A54012F14DB641E24B2A74200DAA5
S1132D003C0024B222000099079BDB681818FEF7E8
S1132D10FBFE07988069001907998861381B079999
S1132D2048620798C06807998969411808A800781B
S1132D300870300003D42B2048708D1C03E02D2232
S1132D404A708D1C4642002404AF08E00A2202A8FF
S1132D5000F0B2FB03983870029E641C7F1C31B2F1
S1132D600129F3DA022C08DA08A8007820210143AB
S1132D70652902D1302028706D1C002C09D1302027
S1132D8028706D1C07E0641E04A8005D30302870B4
S1132D906D1C012CF7DA0798C068079989694018F7
S1132DA0281A0799C86107983821405C142101400A
S1132DB0102914D10798406907998969401807991F
S1132DC0496A40180799C96940180799896A4018DF
S1132DD00799496B884202DA081A0799086209B010
S1132DE0F0BD00003000F1B50E0014000027002BE8
S1132DF00FD01D002178B068009A9047B060002879
S1132E0006D0F06A401CF062641C6D1E01D0F1E72C
S1132E10FF433800F2BDF8B504000F0015001E0092
S1132E2000F05AFB33002A003900200000F068FB50
S1132E30F2BDC9B200E0401C02788A4202D0002AE6
S1132E40F9D100207047010000E0491C0A78002AEB
S1132E50FBD1081A7047C9B201E0401C521E002A77
S1132E6003D003788B42F8D170470020704780B5B7
S1132E7000F032FB012002BD70B504000D00160005
S1132E8000F02AFB32002900200000F02FFB70BD67
S1132E90124224D0994228D970B500251B4202D091
S1132EA00C00002109E000240126491864419442E1
S1132EB000D3A41A7641F8D33100012601E076410B
S1132EC009D2001864416D41A41A9D41F7D2A41897
S1132ED05D41B619F5D3300022002B0070BD1B42B2
S1132EE0D8D108B500F02AFB08BD01D19042D3D255
S1132EF002000B00002100207047F0B50E005E4078
S1132F000125ED072E40B446AE0ADF184C18F442F2
S1132F1008D2F7420ED2640D01D07F0D12D10020E9
S1132F206146F0BD05D1F74201D87F0D05D10020DF
S1132F30C143F0BDFBD1640DF9D00020C143490564
S1132F4049088FE0E419C902DB0229432B43DB0A59
S1132F50460DC00231438E4630B487B295B27D43EC
S1132F602E0CADB2140C7C43A419260C2404254366
S1132F709CB27C43A419190C7943270CC919A4B237
S1132F800F043C43090C000C97B247432E0CBE19A6
S1132F903543ADB2170C4743360CBF19A6B2BF195F
S1132FA03E043543240C3E0C36199FB24743BF19E7
S1132FB0BCB23E0C89191F0C47437F183E043443AE
S1132FC0390C704680B297B247432E0CBE19354374
S1132FD0ADB2170C4743360CBF19A6B2BF193E0455
S1132FE03543240C3E0C36199FB24743BF19BCB27B
S1132FF03E0C89191F0C47437F183E043443390C97
S113300077463F0C90B278432E0C80190604ADB27B
S11330102E43050CA0B22D18120C7A435019020C41
S113302080B2240CA4189AB27A43121914042043CF
S1133030120C89181B0C7B43C91830BCEF0A3942A7
S113304003D1B61940414941641E6F12BF0DE41B00
S11330500BDBFF19BC4211DA240500274208AE41FC
S11330607841614166463143F0BD641C05D1401C82
S11330706141CF0201D34908F4E750E75DE730B47A
S1133080012464054D00EC420BD85D00EC4208D8E5
S11330900C001C4364000443144304D2994200D13D
S11330A0904230BC7047FCD08B42FAD18242F8E7A0
S11330B0F446002804D4494200F013F84042604723
S11330C04042002905D45FD000F00BF84042494249
S11330D06047494200F005F84942604703460B4304
S11330E0E6D40022030A8B420BD203098B4219D285
S11330F043088B422ED2411A00D201465241104657
S11331007047FF2209023FD012068B4205D31212E8
S113311009028B4201D31212090203098B4219D30B
S113312000E0090AC3098B4201D3CB01C01A524102
S113313083098B4201D38B01C01A524143098B424C
S113314001D34B01C01A524103098B4201D30B0135
S1133150C01A5241C3088B4201D3CB00C01A52415A
S113316083088B4201D38B00C01A524143088B421F
S113317001D34B00C01A5241884200D3401A524135
S1133180CFD201461046704708B500F0D9F908BD02
S1133190F0B40E005E400125ED072E40B446AE0AA1
S11331A0DF184C18F4423BD2F74241D2640D43D0AD
S11331B07F0D38D0E41BC902DB0229432B43CF0A1D
S11331C0DB0A0600B61A9F4104D2641EB6197F4179
S11331D0B6185F416812800D24180018844222DA60
S11331E0E80C0021B6197F41B61A9F4102D2B618E5
S11331F05F413F1C40414941F4D3241C21DD240597
S1133200B6197F41B61A9F4105D33743C6073743E2
S11332100026012F7041614166463143F0BC70477E
S1133220FCD1F74205D20020C14349054908F3E720
S113323004D00020C143F1E77F0DFAD0002061469D
S1133240ECE72442FAD1401C61410F03F6D300207D
S1133250E2E71C20C04370474A1812D2400DC9024D
S113326008430121C9070843520D40210901521A9C
S1133270521C06D452421F3201D4D0407047C017AA
S11332807047002070477047010000BF42221201BE
S1133290D21E004207D002D4521E0018FCD5C10A27
S11332A040051205891870478B4200D1824205D926
S11332B08446100062468C4619006346DF184C1899
S11332C0640D7F0D3AD0661C760537D0E61B352E8B
S11332D034DCDB022B43DB0A0C0DC9022943C9127F
S11332E0202E0DDB1700203E06D01F00F741F340CF
S11332F05F400026012A7741C01871410DD217E0C2
S11333001700F741F2405740F3415A40B340F340AD
S11333105A400026801859410AD3A21C52050FD0E6
S1133320C207012F724117004008CB071843490810
S1133330641C24054208AF4170416141F0BC7047F0
S1133340641C21050020F9E76B4010E06B40ABE7FB
S1133350F742F3D1E943F1E72442EFD10020002101
S1133360ECE7F0B40125ED070F005F40EED40C004C
S1133370871A9C4105D2C01BA141D21963416940FF
S11333806B40AE0ADF184C18F442E1D2640D7F0D95
S1133390E2D0E61B362ED1DCDB022B43DB0AA4464B
S11333A00C0DC9022943C90A012E28DC04D1D60711
S11333B05208DF073A435B08EF0A7642904199418D
S11333C014D039423BD1B61940414941761C3942A7
S11333D004D1761C001849413942FAD0B9436746F2
S11333E0B74208D9A41B24052143A7E70042EAD128
S11333F03642E8D1A2E7E40AE10700209EE7202E46
S11334000BDD203E1F00F340F7415F40012A0022FC
S113341057417E42984191410BE01700F741F24039
S11334205740F3415A40B340F3405A407E429041E2
S113343099410A0303D2641EB61940414941002749
S1133440641E24054208AE4178416141F0BC7047D6
S113345080B5124800F075F811A1016041608160E7
S1133460C1600161416181610EA242628162C162F7
S1133470016341630CA282630DA2C26301644164CF
S113348001BD10B5054800F05CF804002068002870
S113349001D1FFF7DDFF200010BD00000000002077
S11334A0000000002E00000066616C7365000000DF
S11334B074727565000000007CB504000E001500F0
S11334C030002900FFF70AFE00904543701B01906D
S11334D0684603C803C473BD80B5034800F031F8DF
S11334E0806902BD0000000090000020002804D183
S11334F00EA003C803C2002070470170012070476A
S1133500002904D10BA003C803C300207047002A7C
S113351002D10120C0437047002801D00A780280FC
S11335200978481E8041C043C00F70470000000066
S11335300000000000000000000000007047FEE7EB
S1133540704770476C490878C022104201D00020AF
S113355070476A4AA7480068136C1B0F5B1C5843EA
S113356049794906116803D4654B0B4013607047D1
S113357080235B020B43136040087047F7B50400D7
S11335806049019800B200F059FB05005E490298B9
S113359000B200F053FB0100280000F039FB0500E5
S11335A00020C043854204D14122B1494EA000F01D
S11335B087FB2560AF498D4206D0AF498D4213D0B9
S11335C0AE498D4214D019E04C4EFFF7BBFF0028E2
S11335D0306802D08021C90401E08021090501433B
S11335E03160306B310D07E0444E306BC90C03E0A1
S11335F0424E306B80214901014331632068F32638
S1133600C1783140C17020680827C17808220A4374
S1133610C2702068402102790A42FCD0C17831404E
S1133620C17094498D4206D093498D4205D0934987
S11336308D4204D005E0002002E0012000E00220D9
S1133640606096218901200000F060F82068C1784C
S11336506A461170C1780E40C670002021688870D7
S113366020680178DF220A40027020680178017026
S11336702068C1786A4612780C2313400B43C37048
S11336802049019800B200F0A1FA1F49029800B243
S113369000F09CFA019800B20021C943884208D086
S11336A02068C1780F43C7700221019800B200F06E
S11336B03DFB029800B20021C943884209D020682A
S11336C0C17804220A43C2700221029800B200F0B9
S11336D02DFB6848854205D1694801210160001D20
S11336E006CC06C003B0F0BD28696E7429756172FA
S11336F07420213D204E43000040064004800440D5
S1133700FFFFFEFF306B00009C6B0000F1B582B040
S11337100C000068C1780C220A400192C178F3229F
S11337200A40C270029800680090564A31480099D5
S1133730504B994200D07CE0C023BE490D781D4215
S113374029D10568166C360F761C75434E797606BA
S1133750166803D4C34F3740176004E080277F0204
S1133760374317606D08002D15D00D781D425ED1CA
S11337700068136C1B0F5B1C584349794906116898
S113378003D4B84B0B4013605AE080235B020B4315
S11337901360400854E00068126C120F521C50432E
S11337A00A781A40802A4BD00A781A423FD14A79C3
S11337B0520633D48A79D20639D401220B789B0677
S11337C05B0F9A40D2B24B7830252B4200D0520185
S11337D0C978E0230B401BD0202B16D0402B12D0ED
S11337E0602B0DD0802B09D0A02B05D0C02B12D17B
S11337F0A44911E0FC000020B72107E0B72108E04C
S1133800A021090108E0F02100E0A021C90003E0A3
S1133810A021890000E09C4950430FE00A794B79CC
S11338201F210A40521C50431940183106E0002061
S113383006E0116C00684903490F491CFFF751FC6D
S11338402101FFF74EFC00990978E0220A40C104E7
S1133850C90E1143009A1170029909684A78487098
S113386002980068C178019A0A43C27003B0F0BD9F
S11338708C39000000A0064000B0064000C006409D
S1133880980800200480044070B5012B06D0022B58
S113389004D0A6223DA100BF1FA00AE014000AD054
S11338A0012C08D0022C06D0A72200BF37A100BFEC
S11338B023A000F005FA082904D0A82233A100BFF0
S11338C04EA0F6E70468E5780C212940E578F32654
S11338D02E40E670002A03D0022A06D002D306E066
S11338E0002400E00124254601E0012400256200B3
S11338F015430268957002681478DF252540157019
S1133900026814785B1E5B01234313700068C2785D
S11339101143C17070BD00002873746F705F6269D9
S11339207473203D3D203129207C7C202873746FE2
S1133930705F62697473203D3D20322900000000ED
S113394028706172697479203D3D205061726974F8
S1133950794E6F6E6529207C7C20287061726974B1
S113396079203D3D205061726974794F6464292047
S11339707C7C2028706172697479203D3D205061FF
S1133980726974794576656E290000002F62756945
S11339906C64732F77732F6D6265642D6F732D6361
S11339A0695F6D626564322D6275696C642D49418D
S11339B05240322F6D6265642D6F732F746172678C
S11339C06574732F5441524745545F46726565735D
S11339D063616C652F5441524745545F4B4C5858B2
S11339E02F5441524745545F4B4C32355A2F73651F
S11339F07269616C5F6170692E6300006461746157
S1133A005F62697473203D3D2038000070B5040086
S1133A10614D88002E18306800280AD0210602D58E
S1133A200121EA689047A00603D500213068EA68BE
S1133A30904770BD0040064010B5584C00212078D6
S1133A40FFF7E4FF08202178014202D021780843DF
S1133A50207010BD80B5012151480078FFF7D6FFD2
S1133A6001BD0000FFFFFEFF80B502214D48007834
S1133A70FFF7CCFF01BD484BD960406880001A5065
S1133A807047000095080000710B0000B1B40023DA
S1133A9000200024009D2D68434FBD4206D0434FB3
S1133AA0BD4206D0424FBD4206D007E00C20414C37
S1133AB004E00D20404C01E00E20404C002A17D0B9
S1133AC0002902D0012903D006E0E978202201E090
S1133AD0E97880220A43EA70394909688200891822
S1133AE00C64002834D401218140364801602FE061
S1133AF00C0001D1012303E002D0012911D003E01D
S1133B00E978DF240C40EC70002B02D0012B0DD09F
S1133B1012E000990968C9788906CB0F01225A403E
S1133B200AE0E9784906490EE970F2E70099096864
S1133B30C978C90901224A40002A09D0002807D4BB
S1133B400121814020480160BFF34F8FBFF36F8F85
S1133B50B1BC704710B42021082203681C791442B8
S1133B6002D01C7914431C7103681C790C40F4D0F6
S1133B70D87910BC704730B48022082304682579B2
S1133B801D4202D025791D4325710468257915400D
S1133B90F4D0E17130BC70478808002004A00640CE
S1133BA004B0064004C0064000A0064000B0064031
S1133BB000C00640393A0000553A0000693A000056
S1133BC008ED00E000E100E080E100E010B582B023
S1133BD004000020C043844201D113BD0C310022F3
S1133BE08A5E82420AD0A242F8D18968200000F09D
S1133BF077F80021200000F099F813BD0020009010
S1133C00002322001CA11B4800F0E4F800BF0000C0
S1133C10884200D1704780B50022D243904201D13E
S1133C20080002BD914207D0002100910023020048
S1133C3016A1104800F0CEF802BD000010B582B005
S1133C400022D243904202D1100016BD0C31002351
S1133C50CB5E934205D00400A342F7D1486890425A
S1133C6006D10020009000230DA1024800F0B2F814
S1133C7016BD000030010180636F756C64206E6FA7
S1133C80742070696E6F75740000000070696E6D49
S1133C906170206D69732D6D6174636800000000AC
S1133CA070696E6D6170206E6F7420666F756E64DE
S1133CB020666F72207065726970686572616C004D
S1133CC082B004000D00160000F0D2F800962B001C
S1133CD000222100014800F07DF800BF4401FF806C
S1133CE070B502000023DB439A4206D1142200BFC0
S1133CF020A100BF1AA0FFF7E3FF000B154B1C68BF
S1133D00012506000936B54025431D600003124B0A
S1133D10C0187C2313409A089200801802680F4B45
S1133D20134009021943016070BD000080B50022F0
S1133D30D243904205D121220EA100BF08A0FFF773
S1133D40BFFF054A8018026803239A4311430160A8
S1133D5001BD00003880044000900440FFF8FFFFDC
S1133D6070696E20213D202850696E4E616D652971
S1133D704E4300002F6275696C64732F77732F6D47
S1133D806265642D6F732D63695F6D626564322DA6
S1133D906275696C642D49415240322F6D626564CD
S1133DA02D6F732F746172676574732F544152477A
S1133DB045545F467265657363616C652F54415267
S1133DC04745545F4B4C58582F70696E6D61702E87
S1133DD06300000002B48DB0050016001F001B4CE8
S1133DE02000703000F061F800282BD1002D00D4A1
S1133DF0174D3421684600F0F1F800950020019039
S1133E00029600F035F82068401C2060012804D197
S1133E1034226946201DFDF78BFE342269462000BA
S1133E203830FDF785FEE16E080002D020003830FE
S1133E30884700F02BF80E9B3A000D99200038308B
S1133E4000F0E8F800F0CCF800BF00BF74060020D2
S1133E500101FF80EFF31080C107C90F0120484022
S1133E607047EFF30580401E8041C043C00F704788
S1133E7010B5234C20680021C943884200D137E0A3
S1133E8000F008FA2068401C206010BD1C4801683E
S1133E90002900D1704780B50168491E016000689F
S1133EA0002801D100F008FA01BD70B50400144DDA
S1133EB028680021C943884200D119E000F0EAF9DA
S1133EC02868401C28602678012020702868002873
S1133ED007D02868401E28602868002801D100F017
S1133EE0EBF9701E8041C043C00F70BD000000009C
S1133EF0512200BF1AA100BF0CA0FFF7E1FE00BFD2
S1133F00B008002038B505000C00FFF7B1FF288881
S1133F10041906E038B505000C00FFF7A9FF28884E
S1133F20041B2C80FFF7B2FFA0B232BD6372697428
S1133F306963616C5F73656374696F6E5F726565F5
S1133F406E7472616E63795F636F756E74657220EF
S1133F503C2055494E5433325F4D41580000000017
S1133F602F6275696C64732F77732F6D6265642D8E
S1133F706F732D63695F6D626564322D6275696C60
S1133F80642D49415240322F6D6265642D6F732F49
S1133F90706C6174666F726D2F6D6265645F6372BD
S1133FA069746963616C2E6300000000130030B40F
S1133FB014001500103902D310393CC0FCD2490753
S1133FC000D30CC000D504C0890002D30280801C39
S1133FD0002900D5027030BC704700000022E5E7DC
S1133FE04448FFF762FF002805D0FFF741FFBFF305
S1133FF04F8F20BFFDE7FFF734FF002803D1FFF701
S113400029FF002801D100F0FFF9012000F033FD61
S113401000BF0000F2B5040016001F00216848002C
S1134020800F032801D14D4200E08DB20802030E37
S11340302A0000BF31A000F06CF9FF2032302D1AA5
S113404010D06D1E12D06D1E14D06D1E16D06D1EB4
S113405018D06D1E1ED06D1E18D06D1E1ED00C3DC6
S113406022D024E0A16800BF39A01AE0A16800BFF3
S11340703DA016E0A16800BF3FA012E0A16800BF08
S113408041A00EE0A16800BF44A00AE0A16800BFFF
S113409047A006E0A16800BF4AA002E0A16800BFF3
S11340A04CA000F036F902E050A000F032F900987C
S11340B000F059F9616800BF51A000F02AF9002E00
S11340C00AD000BF52A000F04EF9300000F04BF9C6
S11340D0390009A000F01DF9A16800BF4EA000F04E
S11340E018F9216851A000F014F900BF62A000F093
S11340F010F9F1BDAC0800202B2564000A0A2B2B13
S1134100204D6265644F53204572726F7220496E70
S1134110666F202B2B0A4572726F72205374617480
S113412075733A203078255820436F64653A20250A
S113413064204D6F64756C653A2025640A4572727B
S11341406F72204D6573736167653A20000000004B
S11341504B65726E656C204572726F723A203078CE
S113416025582C20000000005468726561643A20D0
S1134170307825582C2000004D757465783A20302D
S11341807825582C2000000053656D6170686F72AB
S1134190653A20307825582C200000004D656D6F5D
S11341A07279506F6F6C3A20307825582C200000BB
S11341B04576656E74466C6167733A20307825588D
S11341C02C20000054696D65723A20307825582CF3
S11341D0200000004D6573736167655175657565F1
S11341E03A20307825582C20000000004173736574
S11341F07274696F6E206661696C65643A200000B0
S11342000A4C6F636174696F6E3A203078255800E8
S11342100A46696C653A20000A4572726F7220562C
S1134220616C75653A203078255800000A466F7233
S1134230206D6F726520696E666F2C2076697369D4
S1134240743A2068747470733A2F2F61726D6D62C2
S113425065642E6769746875622E696F2F6D626577
S1134260646F732D6572726F722F3F6572726F7215
S11342703D307825303858000A2D2D204D62656474
S11342804F53204572726F7220496E666F202D2D38
S11342900A000000EFF3108072B606494A78002A3B
S11342A006D1C207D20F0120504008700120487087
S11342B0704700BFC208002080B5EFF31080C0072C
S11342C004D4362205490648FFF7FAFC05480021C4
S11342D041700078002800D062B601BDE06F000094
S11342E0C46F0000C208002080B50022825E002353
S11342F0DB439A4205D1242228A100BF21A0FFF765
S1134300DFFC4268002901D0C06800E00069026057
S113431001BD0EB400B501A900F004F8009804B082
S11343200047000010B5A2B00B00020084216846CB
S113433000F0EAFB0400842C05D3052230A1684672
S11343407F3000F0FFFB012C0BDBFFF791FD68468B
S1134350FEF779FD02006946022000F0F7FAFFF744
S113436095FD22B010BD10B50400FFF781FD2000BB
S1134370FEF769FD02002100022000F0E7FAFFF7D2
S113438085FD10BD6F626A2D3E70696E20213D204F
S11343902850696E4E616D65294E43002F62756920
S11343A06C64732F77732F6D6265642D6F732D6347
S11343B0695F6D626564322D6275696C642D494173
S11343C05240322F6D6265642D6F732F7461726772
S11343D06574732F5441524745545F467265657343
S11343E063616C652F5441524745545F4B4C585898
S11343F02F6770696F5F6F626A6563742E6800006F
S11344002E2E2E0A0000000086B0FFF731FD2E4943
S1134410684600F0DCFB2D4F0024E4432C4D0121C1
S11344206846FFF761FF280000F020FC0021684681
S1134430FFF75AFF280000F019FC01216846FFF736
S113444053FF280000F012FC00216846FFF74CFFE0
S1134450280000F00BFC01216846FFF745FF280007
S113446000F004FC00216846FFF73EFF280000F03E
S1134470FDFB01216846FFF737FF280000F0F6FB3B
S113448000216846FFF730FF280000F0EFFB042608
S1134490009800B2A04209D001980399086038003E
S11344A000F0E4FB009800B2A04204D124220949A0
S11344B00948FFF705FC019804990860380000F0EA
S11344C0D5FB761EABD0E3E748100000801A060047
S11344D0F04902009C4300008443000070B57E490B
S11344E08A6C002A02D10A0050328A648A6C0B005A
S11344F050339A421FD1002300250C0026688642BF
S113450000D123606D1C6668864200D163606D1C17
S1134510A668864200D1A3606D1CE668864200D17D
S1134520E3606D1C1034102DE8D3002A02D108007A
S11345305030886470BD682268496948FFF7C0FB41
S113454000BFF8B5170009D00C003D00614E21787A
S11345503000FFF710FB641C6D1EF8D13800F2BD6B
S113456010B50C00002A01D1002010BD5948FFF7F6
S1134570F1FA2070012010BD70B50500102D01DB8B
S1134580002070BD544CA800261830680021C9438F
S113459088422DD1032D2BDA280000F076FB002869
S11345A025D1280000F073FB002820D14020205C96
S11345B0C0071AD42000403000F06BFB002814D050
S11345C0424860644248006800280AD1414D0422F0
S11345D008212800FEF7D2FF962189012800FFF761
S11345E095F82000403000F061FB2000443030603A
S11345F070BD10B5384CA06C002802D1200050309A
S1134600A064A16C2000503081422AD10320E268CA
S1134610002A2AD00420220010321368002B0FD065
S1134620401C5368002B0BD0401C9368002B07D010
S1134630401CD368002B03D0401C10321028ECDB44
S1134640102812DB00F03AFB18210160A06C00284E
S113465002D120005030A064A06C21005031884267
S113466000D068E70020C04310BD0022D24383007D
S1134670E250002902D121005031A16410BD10B5CF
S11346800400FFF7B6FF002802D4134982008C50BF
S113469010BD70B504000E00FFF7F1FF050001D155
S11346A0002070BD310040B200F010FB06000BD1B9
S11346B00948A90040180168A14201D1002102E083
S11346C000F0FCFA09210160300070BD5471000053
S11346D0980800209C08002000010020F8700000C9
S11346E0A873000038B504000D0000BF50A100F00D
S11346F01FFB002803D1FFF73FFF002032BD00BF9E
S11347004DA1200000F014FB002833D1804C6068D8
S11347100021C94388422BD1012000F0B6FA0028B9
S113472025D1012000F0B3FA002820D14020205CDC
S1134730C0071AD42000403000F0ABFA002814D08F
S1134740744860647448006800280AD1734D0422D8
S113475008212800FEF712FF962189012800FEF7A0
S1134760D5FF2000403000F0A1FA20004430606002
S1134770012032BD32A1200000F0DAFA002833D142
S1134780634CA0680021C94388422BD1022000F069
S11347907CFA002825D1022000F079FA002820D1E3
S11347A04020205CC0071AD42000403000F071FA89
S11347B0002814D0574860645748006800280AD17C
S11347C0564D042208212800FEF7D8FE96218901BF
S11347D02800FEF79BFF2000403000F067FA20001D
S11347E04430A060022032BD2900A807800F07D002
S11347F0022801D002D304E0022102E0012100E0FA
S11348000021E80503D50800802189000143082020
S1134810054202D00A0008211143A80503D5080067
S11348208021C9000143200000F00EF832BD0000D1
S11348302F737464696E00002F7374646F75740051
S11348402F737464657272000CB4F0B583B0060003
S11348500F00FFF7CEFE040021D40025009531009F
S113486001A800F077FA00F0CCFA002809D100F092
S113487025FA132101602648A10045500020C043B9
S11348800DE001A800F0A2FA002801A80CD000F065
S1134890A8FA009000981E49A2008850200003B096
S11348A00499F0BC03B0084700F080FA0600DED09B
S11348B001A800F079FA3B0002006946300036682E
S11348C0B668B0470600E5D000F0F8F97142D1E7C8
S11348D080B500F001F802BD10B50400FFF74CFEEE
S11348E000210B4AA300D150002803D100F0E6F9BF
S11348F0092107E0016849698847040006D500F0EA
S1134900DDF9614201600020C04310BD002010BDEC
S11349100001002054710000980800209C08002029
S113492080B5030080200006824204D300F0C6F95B
S11349301621016007E00020012A06DB180000F0C0
S113494005F8002801D50020C04302BD38B50C008D
S11349501500FFF711FE002803D100F0AFF909217B
S113496009E02A0021000368DB689847040005D5A4
S113497000F0A4F9614201600020C04332BD80B55B
S113498080231B069A4206D300F098F91621016091
S11349900020C04302BD00F001F802BD38B50C0090
S11349A01500FFF7E9FD002803D100F087F909217C
S11349B009E02A00210003689B689847040005D594
S11349C000F07CF9614201600020C04332BD80B533
S11349D000F001F802BD38B50C001500FFF7CCFD5E
S11349E0002803D100F06AF9092109E02A00210016
S11349F003681B699847040005D500F05FF961421C
S1134A0001600020C04332BD10B5FFF7B5FD00289A
S1134A1003D100F053F9092107E001688969884747
S1134A20040006D500F04AF9614201600020C04349
S1134A3010BD002010BD1CB50100684600F08AF9C5
S1134A4000F0B4F9040003D100F038F913210CE0AC
S1134A50684600F0A9F90100200022681269904715
S1134A60040006D500F02AF9614201600020C04329
S1134A7016BD002016BD0400184800F02DFA184891
S1134A8000F02AFA0120FFF7BFFF0220FFF7BCFF66
S1134A9000F042FA002801D000F042FA002C01D0C4
S1134AA0FFF7B2FCFEE780B500230222694600F05E
S1134AB043FA01BD10B582B00400FCF79DFB002849
S1134AC006D100900023220007A10648FFF782F9CF
S1134AD016BD000080B5FCF70BFD01BD9801002058
S1134AE0D80100201F0101804F70657261746F72DC
S1134AF0206E6577206F7574206F66206D656D6F0D
S1134B0072790D0A0000000018B583B000240294E5
S1134B10002902D10094019402E00090491E019101
S1134B2003AB6946064878441630FDF7F9F8009956
S1134B30002900D00C70002800D4029804B010BDE5
S1134B400328000010B50400FCF7DEFF200010BDB0
S1134B5080B50022825E0023DB439A4205D12422E1
S1134B6024A100BF1DA0FFF7ABF84268002901D0C3
S1134B70C06800E00069026001BDF8B505000C00E2
S1134B8017001E0000F030FA0020C04384420BD00E
S1134B9031002800FFF7DCFF0121280000F04EFA65
S1134BA03900280000F044FAF1BD38B505000C00C6
S1134BB000F01AFA0020C043844207D000212800E4
S1134BC000F03CFA0221280000F032FA31BD80B531
S1134BD000230022FFF7D1FF01BD00006F626A2DA0
S1134BE03E70696E20213D202850696E4E616D65CE
S1134BF0294E43002F6275696C64732F77732F6D90
S1134C006265642D6F732D63695F6D626564322D17
S1134C106275696C642D49415240322F6D6265643E
S1134C202D6F732F746172676574732F54415247EB
S1134C3045545F467265657363616C652F544152D8
S1134C404745545F4B4C58582F6770696F5F6F62CC
S1134C506A6563742E68000070B5034900F048FA71
S1134C6000F09EFA03E000000024744970B50400CB
S1134C7000F0B4FA050000F0B8FC0600280000F0CB
S1134C80B4FC801BA042F9D370BD00207047002003
S1134C90704710B50400FCF76FFF2078C00703D5F8
S1134CA0FCF779FF002010BD012010BD80B501681C
S1134CB001220A430260FCF76EFF01BD80B5024881
S1134CC0FEF73FFC02BD00004002002070B582B038
S1134CD004000E00FCF74BFF002114480568002D6A
S1134CE007D00322AA56A24203D1287880070CD009
S1134CF01AE0491C4568002D03D00322AA56A2429B
S1134D00F3D0491C08300829E8D3002D02D100F063
S1134D108FFC05000020009023002A00310000F0E1
S1134D20FBFC0500FCF732FF280076BD18020020CA
S1134D3001E0401C491C0A780378934203D1002BFC
S1134D40F7D10020704702D20020C04370470120F1
S1134D507047704770B504000E000025256065603B
S1134D6010A1300000F06EFD30182060002102E038
S1134D70491C521C2260226813782F2B02D1521C2A
S1134D80226001E0002BF3D1002906D12A2200BFC2
S1134D9022A100BF1EA0FEF793FF00F0BBFD6060E0
S1134DA0200070BD2F0000000068704710B504009B
S1134DB06068002808D000F0EDFD012804D1606887
S1134DC0002802D0001F10BD002010BD406800283C
S1134DD000D1704780B500F0DDFD401E8041C00F5A
S1134DE002BD10B504006068002808D000F0D2FDB0
S1134DF0002804D16068002802D0001F10BD0020E4
S1134E0010BD4068002800D0012070470000000059
S1134E106C656E20213D2030000000002F62756912
S1134E206C64732F77732F6D6265642D6F732D63BC
S1134E30695F6D626564322D6275696C642D4941E8
S1134E405240322F6D6265642D6F732F706C6174E4
S1134E50666F726D2F46696C65506174682E63705D
S1134E607000000070B5FCF710FF04002088800477
S1134E702DD565680026F64308E04A1B2900FFF794
S1134E804FFDB0420DD000280BD02D180320205622
S1134E90E1688D42F1D300220021FFF741FDB042C9
S1134EA00DD16068E0606061E06220888021890043
S1134EB0014321802000FCF7FEFE300070BD6568D0
S1134EC0E5606561E5622088114901402180200088
S1134ED0FCF7F1FE002070BDF8B5002815D1FCF7F1
S1134EE046FE00240B4D08260027FF4328680028AF
S1134EF004D0FFF7B7FF002800D53C002D1D761E17
S1134F00F4D1FCF743FE2000F2BDFFF7ABFFF2BD86
S1134F10FFDF00001802002080B500F008F802BD91
S1134F2000B584B069461820ABBE04B000BD01488A
S1134F30006870473C020020F8B51C000D00002AF0
S1134F400ED10026FCF7A1FE07003888C021890194
S1134F50084220D18020000684420BD3C44313E0CE
S1134F60012A02D18026F600ECE7022A16D1802617
S1134F703601E7E7002C07D1002D01D1840D05E0AF
S1134F803D003D350124060D002D0DD12000FCF718
S1134F9033F9050005D13800FCF78DFE0020C0432D
S1134FA0F2BD3000402606433878400606D57868BE
S1134FB0FCF79EFA38880A49014039803888094943
S1134FC001400E433E807D602819B860FD603D615C
S1134FD0BD627D61FD623800FCF76DFE0020F2BD0C
S1134FE0BFFF0000FFF3000038B504000D0025806A
S1134FF00020C043854216D001212800FEF770FE30
S113500001206906C90E88406060280B80010749A9
S11350104018011DE16001000831216101001031D7
S113502061611430A06031BD0000000000F00FF891
S113503080B50022805EFEF779FE01BD80B50022B6
S1135040825E0023DB439A4205D133220AA100BFCA
S113505021A0FEF735FE002902D0012906D001BDAA
S113506081680A68406882430A6001BD81680A68F1
S113507040681043086001BD2F6275696C64732F2A
S113508077732F6D6265642D6F732D63695F6D6235
S11350906564322D6275696C642D49415240322F2A
S11350A06D6265642D6F732F746172676574732FFD
S11350B05441524745545F467265657363616C653C
S11350C02F5441524745545F4B4C58582F677069D1
S11350D06F5F6170692E63006F626A2D3E70696E46
S11350E020213D202850696E4E616D65294E430094
S11350F030B405004D400122D20715404B18041866
S1135100240E2ED01B0E32D0FF2C34D0FF2B3AD0DD
S1135110E4180002090210431143000A090A9446E4
S1135120C2B24A43000AC3B24B43000A4843110ABD
S11351305B181A43D2B2190A091801D44918641E1B
S1135140080A7F3C23DBFE2C08DAE4050906114338
S1135150634699416041284330BC7047FF20C00535
S1135160F9E728001B0EFF2BF6D1D043F4E7280003
S1135170FF2CF1D1F9E74002F7D1FF2B01D149020D
S1135180F3D1E005E7E7D8054902E4D0EDE74302AF
S11351900020641CDFD15B129B1CDCD9D805DAE744
S11351A00122D2070118090E7F3910D449421F3158
S11351B00FD4001805D2C0011043C84000D5D04315
S11351C07047C0011043C84005D4404270470020D6
S11351D070470042F3D510007047704706A070472F
S11351E004480168080000D1704780B502A08847D0
S11351F001BD00003802002004730000E007002015
S1135200F0B585B00700786838300178002976D188
S11352108078002873D13868006880473868C0698E
S1135220804701680191002901D12D2213E0002556
S113523000261F21012401228A40019B9A4201D1A8
S11352400E0002E0491E0A06F5D140680390001FD3
S11352501D2805D33B2200BFB8A18FA0FEF730FD67
S113526007200399091F884002907868056045600B
S11352703868406880477A68110008310091886175
S113528000200021009B203303C3083B01980099B0
S113529008603B2016547868009006460C360120BE
S11352A00021039A00F07CFB401E3060029870607D
S11352B0009E183602980021784A002300F082FBF1
S11352C002000B0001980021801859410022401E61
S11352D09141019A0023FDF7DBFD03C6083E00203F
S11352E000213200183203C20098383041708570B2
S11352F00470380000F005F8380000F0D3F805B069
S1135300F0BDF0B583B0040065682F003A373878F3
S113531000287BD120684068804702006068006AEA
S1135320824273D02E000836B069111A70680840A2
S11353300021B2613268594B9A4202D1040000251F
S11353405CE01A46002300F03DFB7A78002A6A46A6
S113535003C2684603C822D07A7800F04DFB0400EB
S11353600D00300020300CC8684603C8801859412D
S113537000900191200029007A7800F011FB009A36
S1135380019B121A8B41100019003200203203C213
S113539032680023994224D890422FD321E0326806
S11353A00023FDF775FD04000D00300020300CC80B
S11353B0684603C8801859410090019120002900D3
S11353C03268002300F0FEFA009A019B121A8B4106
S11353D0300020300CC0306800218B4201D882425A
S11353E00CD30020641C45413000203003C83268CF
S11353F00023801A99413200203203C23000283041
S113540003C824184D413000283030C003B0F0BD2B
S1135410F1B584B04068029007463C00083420008F
S1135420283003C8121A8B4168460CC0029E1036FD
S11354303568300008300CC8684603C88B4225D351
S113544001D8824222D322681448824202D168469B
S113545003C818E03B20385C0028684603C805D020
S1135460029A3B23D25C00F09BFA02E0002300F096
S1135470A9FA0B4A002312184B4110001900074ADD
S11354800023FDF705FD854200D90500A0694119F7
S11354906068084005B0F0BD3000000040420F00D5
S11354A03F420F0070B50400606805003A21695C52
S11354B0002942D13921405C00283ED12000FFF769
S11354C020FF6068416800292ED00CC9303003C821
S11354D0994202D324D8904222D22000FFF798FFA9
S11354E006000C356869864207D18422520000BF49
S11354F012A100BF45A0FEF7E3FB30002168096953
S113550088472068406880476969B14204D2B04244
S113551006D2884211D203E088420ED2B0420CD3A4
S113552020684069804770BD0C3568696968411816
S11355302868084021680969884770BD2F62756929
S11355406C64732F77732F6D6265642D6F732D6395
S1135550695F6D626564322D6275696C642D4941C1
S11355605240322F6D6265642D6F732F68616C2F0A
S11355706D6265645F7469636B65725F6170692EE7
S11355806300000070B50400FEF772FC2068C06878
S11355908047606839304178002923D101210170A6
S11355A006E0E86870603168080001D0A8688847A0
S11355B06068406800280ED02000FFF7A2FE6668ED
S11355C07568300030300CC803CD083D8B42E8D8F4
S11355D001D38242E5D20020616839228854200038
S11355E0FFF760FFFEF752FC70BD38B50400FFF70B
S11355F007FEFEF73DFC2000FFF783FE60683030B5
S113560030C8FEF743FC200032BD00006D617463B6
S1135610685F7469636B20213D2071756575652D24
S11356203E7469636B5F6C6173745F72656164007F
S113563038B500200024364D29000A68002A0AD112
S11356404020FBF7D9FD002818D0A1006850802124
S11356500180847032BD1288002A04D1A000285829
S11356602C49018032BD641C4A68002AE8D01288A3
S1135670002AF3D0641C0831082CDED332BD10B5E7
S113568000210278120626D50023214A1468844298
S113569002D19B00D1501BE0012354688442F8D00E
S11356A0022394688442F4D00323D4688442F0D063
S11356B0042314698442ECD0052354698442E8D05D
S11356C0062394698442E4D00723D4698442E0D059
S11356D0FBF70EFF10BD0180C943C17001003D31CD
S11356E0416001003D31C16001003D3101610100B3
S11356F03D31816201003D31416101003D31C162B2
S113570001003D31816101002431C16110BD0000FF
S1135710180200207FFF0000F1B582B00D001400D4
S11357201E00002C67D0277880200740A0780090C6
S1135730200000BF33A14022FCF7FAF90098A070C2
S113574020003D30606020003D30E06020003D30AE
S1135750206120003D30A06220003D3060612000C7
S11357603D30E06220003D30A06120002430E06143
S11357702878722801D1012108E0772801D11A2163
S113578004E0612801D1162100E000213943218081
S11357900320014206D12BE02188202211420ED1A0
S11357A00A4322806D1C29786229F5D02B2906D161
S11357B0218803220A40032A01D00322F0E7029839
S11357C0002813D00898552801D1012202E00022B4
S11357D0002803D020884021014300E0218802985A
S11357E000F01AF9E070002808D501E0002E04D575
S11357F0200000F041F9002001E0E670200003B031
S1135800F0BD0000000000FF0000000000000000E8
S11358100000000000000000000000000000000084
S11358200000000000000000000000000000000074
S11358300000000000000000000000000000000064
S11358400000000070B4020002E0A34205D1521C23
S113585013781C0005D00D0000E06D1C2C78260088
S1135860F3D1101A70BC704780B500F005F802BD82
S113587080B500F020F802BD10B5424B0360002350
S1135880436081600273404A9368002B02D1130085
S113589010339360936814001034A3420AD1002992
S11358A002D0116841601060002B02D11100103148
S11358B0916010BD28E038B5040032482060324DB4
S11358C02800083000F018F9A06800280BD02868D8
S11358D0A04203D16068286005E008004168A14245
S11358E0FBD1616841606868A04201D10020686012
S11358F02800083000F000F9207B002802D1201F86
S1135900FEF7ECFD200032BD682220492048FEF756
S1135910D7F900BFF1B50E001B4D2800083000F088
S1135920EBF82C6800E06468002C14D0A768002F02
S1135930F9D03800FDF787FA8642F4D13200009995
S1135940380000F0EFF80028EDD12800083000F00E
S1135950D3F82000F2BD072E0DD10722009900BF15
S11359600DA000F0DFF8002805D12800083000F071
S1135970C3F86868F2BD2800083000F0BDF80020C4
S1135980F2BD0000C473000058080020F870000045
S1135990A8730000007B704764656661756C7400D1
S11359A0D2B2203A03D30100914000207047524202
S11359B0D0415242203291404140D0409040414039
S11359C07047000030B4434351435D18010C0C0090
S11359D0130C5C432D1980B2434392B2514300240B
S11359E0C918644124040B04090C09195043C01854
S11359F0694130BC70470000D2B2203A03D308009A
S1135A00D040002170472032D141D04048409140DD
S1135A10D14048407047000010B500BF12A28B0768
S1135A201B0FD25808234C0700D51A430B4003D050
S1135A301300802292001A43CB0603D51300802260
S1135A4052001A434B0603D513008022D2001A4396
S1135A50890602D58021090201E08021C901114390
S1135A60FEF740FE40B210BD000000000000000040
S1135A70010000000200000070B5040020788007D7
S1135A8003D003202056002809D5FCF770F8200025
S1135A90FFF7F5FDFCF77AF80026F64329E020002D
S1135AA0FFF71AFA0600FCF762F82078400602D5E0
S1135AB06068FBF71DFD0025656003202056022861
S1135AC005D9FEF705FF002801D00026F643A06B98
S1135AD0002809D0FEF7AFFF002801D00026F643C6
S1135AE0A06BFBF705FDA5632000FFF7C8FDFCF7DD
S1135AF04DF8300070BD000080B501000868002832
S1135B0002D108000830086008680831884204D0CF
S1135B10682202490248FEF7D3F802BDF87000007B
S1135B20A873000010B402E0401C491C521E002A55
S1135B3009D00B7804789C42F6D002D20020C043EE
S1135B4002E0012000E0002010BC7047B1A07047C3
S1135B5038B59C480178002905D09B48016840224B
S1135B609143016031BD0124047098480168E20545
S1135B700A4302600021964A1160964DC943296187
S1135B800421A961A9692143A96181689248006837
S1135B904903490F491CFDF7A4FA904940184900EC
S1135BA0FDF79FFA401E2860AC6000F005F831BD97
S1135BB08B480168C8437047F0B5012489490868D7
S1135BC020430860804D0020286087480068874A89
S1135BD0B023C2502007864A10607F480068C96815
S1135BE0090F491C4843C021824E32780A40802A5A
S1135BF041D032780A425AD17179490631D4B17907
S1135C00C90654D4012231788906490F8A40D2B298
S1135C1071783023194200D05201F178E0230B400F
S1135C2019D0202B14D0402B10D0602B0BD0802BFC
S1135C3007D0A02B03D0C02B10D16F490FE0B721A0
S1135C4007E0B72108E0A021090108E0F02100E005
S1135C50A021C90003E0A021890000E06749504366
S1135C6007E0327973791F210A40521C50431940CE
S1135C701831FDF736FA070019D06149FDF731FAFA
S1135C80002914D138005E49FDF72BFA012801D10F
S1135C9007202EE0002100E0491C4008012804D11F
S1135CA0C80078210140032022E02042F4D030785B
S1135CB002210143317070780443747000206860DD
S1135CC0307A0E21014002D0022905D006E068682E
S1135CD0082101436960F0BD68680AE0307AF12167
S1135CE0014031720420317A04220A433272696815
S1135CF008436860F0BD3448016840229143016064
S1135D007047704710B53048016880220A4302602A
S1135D103C494A68002A0ED0002303603A4B836052
S1135D20036840241C430460036801241C4304608A
S1135D30521E4A6010BD0A8813000CD00023036071
S1135D4082600268402414430460026801241443FE
S1135D5004600B8010BD0168012291430160FFF7CC
S1135D603FFA10BD30B41E490968CA43821A100CA8
S1135D70244948600A8001224024134B002500284E
S1135D801D600AD0204D9D601D682C431C601C685A
S1135D9022431A60401E486008E00888986018682A
S1135DA004431C60186802431A600D8030BC7047BD
S1135DB01448002141600180802040051349086097
S1135DC070470000C5080020000004403C800440E7
S1135DD00070034000710340FC00002020A1070074
S1135DE0147103403880044008ED00E0055D0000B4
S1135DF000E100E00040064095080000710B00003F
S1135E0040420F00A4080020FFFF000000E200E071
S1135E107047000040420F002000000082B00400E0
S1135E2042A0FEF776FA202C04D0302C07D0402C68
S1135E300BD010E048A0FEF76CFA364C10E000BF1F
S1135E4049A0FEF766FA344C0AE000BF49A0FEF709
S1135E5060FA324C04E000BF49A0FEF75AFA304C15
S1135E604AA0FEF756FA00F00FF800BF4AA0FEF76A
S1135E7050FA0020009000232A48C26B4EA1200053
S1135E80FDF7A8FF00BF0000F0B583B00025254E44
S1135E90340000BF4CA7226829003800FEF739FA05
S1135EA06D1C241D0D2DF6DBB06C0290706C0190FE
S1135EB0306C0090F36BB26B716B00BF46A0FEF7C1
S1135EC028FA1948016800BF56A0FEF722FA4C20B0
S1135ED0305C00070AD500BF56A0FEF71AFA50201E
S1135EE0305CC00705D500BF56A004E05EA0FEF7F5
S1135EF010FA00BF57A0FEF70CFA4C20305C4007A4
S1135F0002D500BF5CA000E05EA0FEF702FA03B079
S1135F10F0BD00003E01FF803F01FF804001FF8093
S1135F203D01FF80E806002000ED00E00A2B2B2055
S1135F304D6265644F53204661756C742048616EF0
S1135F40646C6572202B2B0A0A4661756C74547953
S1135F5070653A20000000004D656D4D616E61670B
S1135F60654661756C7400004275734661756C74A6
S1135F700000000055736167654661756C7400002C
S1135F80486172644661756C740000000A0A436FCC
